{
  "_format": "hh-sol-artifact-1",
  "contractName": "MockSwapRouter",
  "sourceName": "contracts/MockSwapRouter.sol",
  "abi": [
    {
      "anonymous": false,
      "inputs": [
        {
          "indexed": true,
          "internalType": "address",
          "name": "tokenIn",
          "type": "address"
        },
        {
          "indexed": true,
          "internalType": "address",
          "name": "tokenOut",
          "type": "address"
        },
        {
          "indexed": false,
          "internalType": "uint256",
          "name": "amountIn",
          "type": "uint256"
        },
        {
          "indexed": false,
          "internalType": "uint256",
          "name": "amountOut",
          "type": "uint256"
        },
        {
          "indexed": false,
          "internalType": "address",
          "name": "recipient",
          "type": "address"
        }
      ],
      "name": "MockSwapExecuted",
      "type": "event"
    },
    {
      "inputs": [
        {
          "components": [
            {
              "internalType": "address",
              "name": "tokenIn",
              "type": "address"
            },
            {
              "internalType": "address",
              "name": "tokenOut",
              "type": "address"
            },
            {
              "internalType": "uint24",
              "name": "fee",
              "type": "uint24"
            },
            {
              "internalType": "address",
              "name": "recipient",
              "type": "address"
            },
            {
              "internalType": "uint256",
              "name": "deadline",
              "type": "uint256"
            },
            {
              "internalType": "uint256",
              "name": "amountIn",
              "type": "uint256"
            },
            {
              "internalType": "uint256",
              "name": "amountOutMinimum",
              "type": "uint256"
            },
            {
              "internalType": "uint160",
              "name": "sqrtPriceLimitX96",
              "type": "uint160"
            }
          ],
          "internalType": "struct MockSwapRouter.ExactInputSingleParams",
          "name": "params",
          "type": "tuple"
        }
      ],
      "name": "exactInputSingle",
      "outputs": [
        {
          "internalType": "uint256",
          "name": "amountOut",
          "type": "uint256"
        }
      ],
      "stateMutability": "nonpayable",
      "type": "function"
    }
  ],
  "bytecode": "0x608060405234801561001057600080fd5b506106cd806100206000396000f3fe608060405234801561001057600080fd5b506004361061002b5760003560e01c8063414bf38914610030575b600080fd5b61004a6004803603810190610045919061034a565b610060565b6040516100579190610391565b60405180910390f35b600081608001354211156100a9576040517f08c379a00000000000000000000000000000000000000000000000000000000081526004016100a090610409565b60405180910390fd5b60008260a00135116100f0576040517f08c379a00000000000000000000000000000000000000000000000000000000081526004016100e790610475565b60405180910390fd5b81600001602081019061010391906104f3565b73ffffffffffffffffffffffffffffffffffffffff166323b872dd33308560a001356040518463ffffffff1660e01b81526004016101439392919061052f565b6020604051808303816000875af1158015610162573d6000803e3d6000fd5b505050506040513d601f19601f82011682018060405250810190610186919061059e565b508160a0013590508160c001358110156101d5576040517f08c379a00000000000000000000000000000000000000000000000000000000081526004016101cc90610617565b60405180910390fd5b8160200160208101906101e891906104f3565b73ffffffffffffffffffffffffffffffffffffffff1663a9059cbb83606001602081019061021691906104f3565b836040518363ffffffff1660e01b8152600401610234929190610637565b6020604051808303816000875af1158015610253573d6000803e3d6000fd5b505050506040513d601f19601f82011682018060405250810190610277919061059e565b5081602001602081019061028b91906104f3565b73ffffffffffffffffffffffffffffffffffffffff168260000160208101906102b491906104f3565b73ffffffffffffffffffffffffffffffffffffffff167f8bf090b1460d6dbc7f0f7c6784d297a4bb7a192be814707b3dc3612c81b1f2bb8460a001358486606001602081019061030491906104f3565b60405161031393929190610660565b60405180910390a3919050565b600080fd5b600080fd5b6000610100828403121561034157610340610325565b5b81905092915050565b6000610100828403121561036157610360610320565b5b600061036f8482850161032a565b91505092915050565b6000819050919050565b61038b81610378565b82525050565b60006020820190506103a66000830184610382565b92915050565b600082825260208201905092915050565b7f5377617020646561646c696e6520657863656564656400000000000000000000600082015250565b60006103f36016836103ac565b91506103fe826103bd565b602082019050919050565b60006020820190508181036000830152610422816103e6565b9050919050565b7f5a65726f20616d6f756e74496e00000000000000000000000000000000000000600082015250565b600061045f600d836103ac565b915061046a82610429565b602082019050919050565b6000602082019050818103600083015261048e81610452565b9050919050565b600073ffffffffffffffffffffffffffffffffffffffff82169050919050565b60006104c082610495565b9050919050565b6104d0816104b5565b81146104db57600080fd5b50565b6000813590506104ed816104c7565b92915050565b60006020828403121561050957610508610320565b5b6000610517848285016104de565b91505092915050565b610529816104b5565b82525050565b60006060820190506105446000830186610520565b6105516020830185610520565b61055e6040830184610382565b949350505050565b60008115159050919050565b61057b81610566565b811461058657600080fd5b50565b60008151905061059881610572565b92915050565b6000602082840312156105b4576105b3610320565b5b60006105c284828501610589565b91505092915050565b7f536c697070616765206578636565646564000000000000000000000000000000600082015250565b60006106016011836103ac565b915061060c826105cb565b602082019050919050565b60006020820190508181036000830152610630816105f4565b9050919050565b600060408201905061064c6000830185610520565b6106596020830184610382565b9392505050565b60006060820190506106756000830186610382565b6106826020830185610382565b61068f6040830184610520565b94935050505056fea2646970667358221220573dacb8f68229669c6d628bd4bcb990745d74e3206f76047703e2b462be804a64736f6c63430008180033",
  "linkReferences": {},
  "deployedLinkReferences": {}
}