{
  "_format": "hh-sol-artifact-1",
  "contractName": "TreasuryRebalancer",
  "sourceName": "contracts/TreasuryRebalancer.sol",
  "abi": [
    {
      "inputs": [
        {
          "internalType": "address",
          "name": "_swapRouter",
          "type": "address"
        },
        {
          "internalType": "address",
          "name": "_tokenIn",
          "type": "address"
        },
        {
          "internalType": "address",
          "name": "_tokenOut",
          "type": "address"
        },
        {
          "internalType": "uint24",
          "name": "_poolFee",
          "type": "uint24"
        },
        {
          "internalType": "uint256",
          "name": "_slippageBps",
          "type": "uint256"
        }
      ],
      "stateMutability": "nonpayable",
      "type": "constructor"
    },
    {
      "anonymous": false,
      "inputs": [
        {
          "indexed": true,
          "internalType": "address",
          "name": "token",
          "type": "address"
        },
        {
          "indexed": false,
          "internalType": "uint256",
          "name": "amount",
          "type": "uint256"
        }
      ],
      "name": "Deposited",
      "type": "event"
    },
    {
      "anonymous": false,
      "inputs": [
        {
          "indexed": true,
          "internalType": "address",
          "name": "token",
          "type": "address"
        },
        {
          "indexed": false,
          "internalType": "uint256",
          "name": "amount",
          "type": "uint256"
        }
      ],
      "name": "EmergencyWithdraw",
      "type": "event"
    },
    {
      "anonymous": false,
      "inputs": [
        {
          "indexed": true,
          "internalType": "address",
          "name": "caller",
          "type": "address"
        },
        {
          "indexed": false,
          "internalType": "uint256",
          "name": "amountIn",
          "type": "uint256"
        },
        {
          "indexed": false,
          "internalType": "uint256",
          "name": "amountOut",
          "type": "uint256"
        },
        {
          "indexed": false,
          "internalType": "string",
          "name": "signal",
          "type": "string"
        }
      ],
      "name": "RebalanceExecuted",
      "type": "event"
    },
    {
      "anonymous": false,
      "inputs": [
        {
          "indexed": true,
          "internalType": "address",
          "name": "newRelayer",
          "type": "address"
        }
      ],
      "name": "RelayerUpdated",
      "type": "event"
    },
    {
      "anonymous": false,
      "inputs": [
        {
          "indexed": true,
          "internalType": "address",
          "name": "newRouter",
          "type": "address"
        }
      ],
      "name": "RouterUpdated",
      "type": "event"
    },
    {
      "inputs": [
        {
          "internalType": "address",
          "name": "token",
          "type": "address"
        }
      ],
      "name": "balanceOf",
      "outputs": [
        {
          "internalType": "uint256",
          "name": "",
          "type": "uint256"
        }
      ],
      "stateMutability": "view",
      "type": "function"
    },
    {
      "inputs": [
        {
          "internalType": "address",
          "name": "token",
          "type": "address"
        },
        {
          "internalType": "uint256",
          "name": "amount",
          "type": "uint256"
        }
      ],
      "name": "deposit",
      "outputs": [],
      "stateMutability": "nonpayable",
      "type": "function"
    },
    {
      "inputs": [
        {
          "internalType": "address",
          "name": "token",
          "type": "address"
        },
        {
          "internalType": "uint256",
          "name": "amount",
          "type": "uint256"
        }
      ],
      "name": "emergencyWithdraw",
      "outputs": [],
      "stateMutability": "nonpayable",
      "type": "function"
    },
    {
      "inputs": [],
      "name": "owner",
      "outputs": [
        {
          "internalType": "address",
          "name": "",
          "type": "address"
        }
      ],
      "stateMutability": "view",
      "type": "function"
    },
    {
      "inputs": [],
      "name": "poolFee",
      "outputs": [
        {
          "internalType": "uint24",
          "name": "",
          "type": "uint24"
        }
      ],
      "stateMutability": "view",
      "type": "function"
    },
    {
      "inputs": [
        {
          "internalType": "uint256",
          "name": "percentBps",
          "type": "uint256"
        },
        {
          "internalType": "string",
          "name": "signal",
          "type": "string"
        }
      ],
      "name": "rebalance",
      "outputs": [
        {
          "internalType": "bool",
          "name": "",
          "type": "bool"
        }
      ],
      "stateMutability": "nonpayable",
      "type": "function"
    },
    {
      "inputs": [],
      "name": "relayer",
      "outputs": [
        {
          "internalType": "address",
          "name": "",
          "type": "address"
        }
      ],
      "stateMutability": "view",
      "type": "function"
    },
    {
      "inputs": [
        {
          "internalType": "address",
          "name": "newRelayer",
          "type": "address"
        }
      ],
      "name": "setRelayer",
      "outputs": [],
      "stateMutability": "nonpayable",
      "type": "function"
    },
    {
      "inputs": [
        {
          "internalType": "uint256",
          "name": "newSlippageBps",
          "type": "uint256"
        }
      ],
      "name": "setSlippage",
      "outputs": [],
      "stateMutability": "nonpayable",
      "type": "function"
    },
    {
      "inputs": [
        {
          "internalType": "address",
          "name": "newRouter",
          "type": "address"
        }
      ],
      "name": "setSwapRouter",
      "outputs": [],
      "stateMutability": "nonpayable",
      "type": "function"
    },
    {
      "inputs": [],
      "name": "slippageBps",
      "outputs": [
        {
          "internalType": "uint256",
          "name": "",
          "type": "uint256"
        }
      ],
      "stateMutability": "view",
      "type": "function"
    },
    {
      "inputs": [],
      "name": "swapRouter",
      "outputs": [
        {
          "internalType": "address",
          "name": "",
          "type": "address"
        }
      ],
      "stateMutability": "view",
      "type": "function"
    },
    {
      "inputs": [],
      "name": "tokenIn",
      "outputs": [
        {
          "internalType": "address",
          "name": "",
          "type": "address"
        }
      ],
      "stateMutability": "view",
      "type": "function"
    },
    {
      "inputs": [],
      "name": "tokenOut",
      "outputs": [
        {
          "internalType": "address",
          "name": "",
          "type": "address"
        }
      ],
      "stateMutability": "view",
      "type": "function"
    },
    {
      "inputs": [
        {
          "internalType": "address",
          "name": "newOwner",
          "type": "address"
        }
      ],
      "name": "transferOwnership",
      "outputs": [],
      "stateMutability": "nonpayable",
      "type": "function"
    }
  ],
  "bytecode": "0x60806040523480156200001157600080fd5b50604051620023bf380380620023bf8339818101604052810190620000379190620003e7565b600073ffffffffffffffffffffffffffffffffffffffff168573ffffffffffffffffffffffffffffffffffffffff1603620000a9576040517f08c379a0000000000000000000000000000000000000000000000000000000008152600401620000a090620004d0565b60405180910390fd5b600073ffffffffffffffffffffffffffffffffffffffff168473ffffffffffffffffffffffffffffffffffffffff16036200011b576040517f08c379a0000000000000000000000000000000000000000000000000000000008152600401620001129062000542565b60405180910390fd5b600073ffffffffffffffffffffffffffffffffffffffff168373ffffffffffffffffffffffffffffffffffffffff16036200018d576040517f08c379a00000000000000000000000000000000000000000000000000000000081526004016200018490620005b4565b60405180910390fd5b336000806101000a81548173ffffffffffffffffffffffffffffffffffffffff021916908373ffffffffffffffffffffffffffffffffffffffff16021790555033600160006101000a81548173ffffffffffffffffffffffffffffffffffffffff021916908373ffffffffffffffffffffffffffffffffffffffff16021790555084600260006101000a81548173ffffffffffffffffffffffffffffffffffffffff021916908373ffffffffffffffffffffffffffffffffffffffff16021790555083600360006101000a81548173ffffffffffffffffffffffffffffffffffffffff021916908373ffffffffffffffffffffffffffffffffffffffff16021790555082600460006101000a81548173ffffffffffffffffffffffffffffffffffffffff021916908373ffffffffffffffffffffffffffffffffffffffff16021790555081600460146101000a81548162ffffff021916908362ffffff160217905550806005819055505050505050620005d6565b600080fd5b600073ffffffffffffffffffffffffffffffffffffffff82169050919050565b6000620003348262000307565b9050919050565b620003468162000327565b81146200035257600080fd5b50565b60008151905062000366816200033b565b92915050565b600062ffffff82169050919050565b62000386816200036c565b81146200039257600080fd5b50565b600081519050620003a6816200037b565b92915050565b6000819050919050565b620003c181620003ac565b8114620003cd57600080fd5b50565b600081519050620003e181620003b6565b92915050565b600080600080600060a0868803121562000406576200040562000302565b5b6000620004168882890162000355565b9550506020620004298882890162000355565b94505060406200043c8882890162000355565b93505060606200044f8882890162000395565b92505060806200046288828901620003d0565b9150509295509295909350565b600082825260208201905092915050565b7f496e76616c696420726f75746572000000000000000000000000000000000000600082015250565b6000620004b8600e836200046f565b9150620004c58262000480565b602082019050919050565b60006020820190508181036000830152620004eb81620004a9565b9050919050565b7f496e76616c696420746f6b656e496e0000000000000000000000000000000000600082015250565b60006200052a600f836200046f565b91506200053782620004f2565b602082019050919050565b600060208201905081810360008301526200055d816200051b565b9050919050565b7f496e76616c696420746f6b656e4f757400000000000000000000000000000000600082015250565b60006200059c6010836200046f565b9150620005a98262000564565b602082019050919050565b60006020820190508181036000830152620005cf816200058d565b9050919050565b611dd980620005e66000396000f3fe608060405234801561001057600080fd5b50600436106100f55760003560e01c806370a0823111610097578063c31c9c0711610066578063c31c9c0714610260578063d0202d3b1461027e578063f0fa55a91461029c578063f2fde38b146102b8576100f5565b806370a08231146101d85780638406c079146102085780638da5cb5b1461022657806395ccea6714610244576100f5565b8063578c71d9116100d3578063578c71d9146101505780635db0cb651461016e5780636548e9bc1461019e5780636daf390b146101ba576100f5565b8063089fe6aa146100fa578063412736571461011857806347e7ef2414610134575b600080fd5b6101026102d4565b60405161010f919061123d565b60405180910390f35b610132600480360381019061012d91906112ca565b6102e9565b005b61014e6004803603810190610149919061132d565b61046d565b005b6101586105c7565b604051610165919061137c565b60405180910390f35b610188600480360381019061018391906114dd565b6105cd565b6040516101959190611554565b60405180910390f35b6101b860048036038101906101b391906112ca565b610b39565b005b6101c2610cbd565b6040516101cf919061157e565b60405180910390f35b6101f260048036038101906101ed91906112ca565b610ce3565b6040516101ff919061137c565b60405180910390f35b610210610d66565b60405161021d919061157e565b60405180910390f35b61022e610d8c565b60405161023b919061157e565b60405180910390f35b61025e6004803603810190610259919061132d565b610db0565b005b610268610fb6565b604051610275919061157e565b60405180910390f35b610286610fdc565b604051610293919061157e565b60405180910390f35b6102b660048036038101906102b19190611599565b611002565b005b6102d260048036038101906102cd91906112ca565b6110df565b005b600460149054906101000a900462ffffff1681565b60008054906101000a900473ffffffffffffffffffffffffffffffffffffffff1673ffffffffffffffffffffffffffffffffffffffff163373ffffffffffffffffffffffffffffffffffffffff1614610377576040517f08c379a000000000000000000000000000000000000000000000000000000000815260040161036e90611623565b60405180910390fd5b600073ffffffffffffffffffffffffffffffffffffffff168173ffffffffffffffffffffffffffffffffffffffff16036103e6576040517f08c379a00000000000000000000000000000000000000000000000000000000081526004016103dd9061168f565b60405180910390fd5b80600260006101000a81548173ffffffffffffffffffffffffffffffffffffffff021916908373ffffffffffffffffffffffffffffffffffffffff1602179055508073ffffffffffffffffffffffffffffffffffffffff167f7aed1d3e8155a07ccf395e44ea3109a0e2d6c9b29bbbe9f142d9790596f4dc8060405160405180910390a250565b600081116104b0576040517f08c379a00000000000000000000000000000000000000000000000000000000081526004016104a7906116fb565b60405180910390fd5b60008273ffffffffffffffffffffffffffffffffffffffff166323b872dd3330856040518463ffffffff1660e01b81526004016104ef9392919061171b565b6020604051808303816000875af115801561050e573d6000803e3d6000fd5b505050506040513d601f19601f82011682018060405250810190610532919061177e565b905080610574576040517f08c379a000000000000000000000000000000000000000000000000000000000815260040161056b906117f7565b60405180910390fd5b8273ffffffffffffffffffffffffffffffffffffffff167f2da466a7b24304f47e87fa2e1e5a81b9831ce54fec19055ce277ca2f39ba42c4836040516105ba919061137c565b60405180910390a2505050565b60055481565b60008060009054906101000a900473ffffffffffffffffffffffffffffffffffffffff1673ffffffffffffffffffffffffffffffffffffffff163373ffffffffffffffffffffffffffffffffffffffff1614806106775750600160009054906101000a900473ffffffffffffffffffffffffffffffffffffffff1673ffffffffffffffffffffffffffffffffffffffff163373ffffffffffffffffffffffffffffffffffffffff16145b6106b6576040517f08c379a00000000000000000000000000000000000000000000000000000000081526004016106ad90611889565b60405180910390fd5b6000831180156106c857506127108311155b610707576040517f08c379a00000000000000000000000000000000000000000000000000000000081526004016106fe906118f5565b60405180910390fd5b6000600360009054906101000a900473ffffffffffffffffffffffffffffffffffffffff1673ffffffffffffffffffffffffffffffffffffffff166370a08231306040518263ffffffff1660e01b8152600401610764919061157e565b602060405180830381865afa158015610781573d6000803e3d6000fd5b505050506040513d601f19601f820116820180604052508101906107a5919061192a565b9050600081116107ea576040517f08c379a00000000000000000000000000000000000000000000000000000000081526004016107e1906119a3565b60405180910390fd5b600061271085836107fb91906119f2565b6108059190611a63565b90506000600360009054906101000a900473ffffffffffffffffffffffffffffffffffffffff1673ffffffffffffffffffffffffffffffffffffffff1663095ea7b3600260009054906101000a900473ffffffffffffffffffffffffffffffffffffffff16846040518363ffffffff1660e01b8152600401610888929190611a94565b6020604051808303816000875af11580156108a7573d6000803e3d6000fd5b505050506040513d601f19601f820116820180604052508101906108cb919061177e565b90508061090d576040517f08c379a000000000000000000000000000000000000000000000000000000000815260040161090490611b09565b60405180910390fd5b60006127106005548461092091906119f2565b61092a9190611a63565b836109359190611b29565b90506000604051806101000160405280600360009054906101000a900473ffffffffffffffffffffffffffffffffffffffff1673ffffffffffffffffffffffffffffffffffffffff168152602001600460009054906101000a900473ffffffffffffffffffffffffffffffffffffffff1673ffffffffffffffffffffffffffffffffffffffff168152602001600460149054906101000a900462ffffff1662ffffff1681526020013073ffffffffffffffffffffffffffffffffffffffff16815260200161012c42610a079190611b5d565b8152602001858152602001838152602001600073ffffffffffffffffffffffffffffffffffffffff1681525090506000600260009054906101000a900473ffffffffffffffffffffffffffffffffffffffff1673ffffffffffffffffffffffffffffffffffffffff1663414bf389836040518263ffffffff1660e01b8152600401610a929190611c6f565b6020604051808303816000875af1158015610ab1573d6000803e3d6000fd5b505050506040513d601f19601f82011682018060405250810190610ad5919061192a565b90503373ffffffffffffffffffffffffffffffffffffffff167f0d4b650046f436bfa89fef6ee61b6b4bf86536a65c57704d96b76898b21f32a586838b604051610b2193929190611cf9565b60405180910390a26001965050505050505092915050565b60008054906101000a900473ffffffffffffffffffffffffffffffffffffffff1673ffffffffffffffffffffffffffffffffffffffff163373ffffffffffffffffffffffffffffffffffffffff1614610bc7576040517f08c379a0000000000000000000000000000000000000000000000000000000008152600401610bbe90611623565b60405180910390fd5b600073ffffffffffffffffffffffffffffffffffffffff168173ffffffffffffffffffffffffffffffffffffffff1603610c36576040517f08c379a0000000000000000000000000000000000000000000000000000000008152600401610c2d9061168f565b60405180910390fd5b80600160006101000a81548173ffffffffffffffffffffffffffffffffffffffff021916908373ffffffffffffffffffffffffffffffffffffffff1602179055508073ffffffffffffffffffffffffffffffffffffffff167f09bf35b7806e61e7baf86e6547c4221f69d130ccc0a19215d064685a89464a7060405160405180910390a250565b600360009054906101000a900473ffffffffffffffffffffffffffffffffffffffff1681565b60008173ffffffffffffffffffffffffffffffffffffffff166370a08231306040518263ffffffff1660e01b8152600401610d1e919061157e565b602060405180830381865afa158015610d3b573d6000803e3d6000fd5b505050506040513d601f19601f82011682018060405250810190610d5f919061192a565b9050919050565b600160009054906101000a900473ffffffffffffffffffffffffffffffffffffffff1681565b60008054906101000a900473ffffffffffffffffffffffffffffffffffffffff1681565b60008054906101000a900473ffffffffffffffffffffffffffffffffffffffff1673ffffffffffffffffffffffffffffffffffffffff163373ffffffffffffffffffffffffffffffffffffffff1614610e3e576040517f08c379a0000000000000000000000000000000000000000000000000000000008152600401610e3590611623565b60405180910390fd5b60008111610e81576040517f08c379a0000000000000000000000000000000000000000000000000000000008152600401610e78906116fb565b60405180910390fd5b60008273ffffffffffffffffffffffffffffffffffffffff1663a9059cbb60008054906101000a900473ffffffffffffffffffffffffffffffffffffffff16846040518363ffffffff1660e01b8152600401610ede929190611a94565b6020604051808303816000875af1158015610efd573d6000803e3d6000fd5b505050506040513d601f19601f82011682018060405250810190610f21919061177e565b905080610f63576040517f08c379a0000000000000000000000000000000000000000000000000000000008152600401610f5a906117f7565b60405180910390fd5b8273ffffffffffffffffffffffffffffffffffffffff167f5fafa99d0643513820be26656b45130b01e1c03062e1266bf36f88cbd3bd969583604051610fa9919061137c565b60405180910390a2505050565b600260009054906101000a900473ffffffffffffffffffffffffffffffffffffffff1681565b600460009054906101000a900473ffffffffffffffffffffffffffffffffffffffff1681565b60008054906101000a900473ffffffffffffffffffffffffffffffffffffffff1673ffffffffffffffffffffffffffffffffffffffff163373ffffffffffffffffffffffffffffffffffffffff1614611090576040517f08c379a000000000000000000000000000000000000000000000000000000000815260040161108790611623565b60405180910390fd5b6103e88111156110d5576040517f08c379a00000000000000000000000000000000000000000000000000000000081526004016110cc90611d83565b60405180910390fd5b8060058190555050565b60008054906101000a900473ffffffffffffffffffffffffffffffffffffffff1673ffffffffffffffffffffffffffffffffffffffff163373ffffffffffffffffffffffffffffffffffffffff161461116d576040517f08c379a000000000000000000000000000000000000000000000000000000000815260040161116490611623565b60405180910390fd5b600073ffffffffffffffffffffffffffffffffffffffff168173ffffffffffffffffffffffffffffffffffffffff16036111dc576040517f08c379a00000000000000000000000000000000000000000000000000000000081526004016111d39061168f565b60405180910390fd5b806000806101000a81548173ffffffffffffffffffffffffffffffffffffffff021916908373ffffffffffffffffffffffffffffffffffffffff16021790555050565b600062ffffff82169050919050565b6112378161121f565b82525050565b6000602082019050611252600083018461122e565b92915050565b6000604051905090565b600080fd5b600080fd5b600073ffffffffffffffffffffffffffffffffffffffff82169050919050565b60006112978261126c565b9050919050565b6112a78161128c565b81146112b257600080fd5b50565b6000813590506112c48161129e565b92915050565b6000602082840312156112e0576112df611262565b5b60006112ee848285016112b5565b91505092915050565b6000819050919050565b61130a816112f7565b811461131557600080fd5b50565b60008135905061132781611301565b92915050565b6000806040838503121561134457611343611262565b5b6000611352858286016112b5565b925050602061136385828601611318565b9150509250929050565b611376816112f7565b82525050565b6000602082019050611391600083018461136d565b92915050565b600080fd5b600080fd5b6000601f19601f8301169050919050565b7f4e487b7100000000000000000000000000000000000000000000000000000000600052604160045260246000fd5b6113ea826113a1565b810181811067ffffffffffffffff82111715611409576114086113b2565b5b80604052505050565b600061141c611258565b905061142882826113e1565b919050565b600067ffffffffffffffff821115611448576114476113b2565b5b611451826113a1565b9050602081019050919050565b82818337600083830152505050565b600061148061147b8461142d565b611412565b90508281526020810184848401111561149c5761149b61139c565b5b6114a784828561145e565b509392505050565b600082601f8301126114c4576114c3611397565b5b81356114d484826020860161146d565b91505092915050565b600080604083850312156114f4576114f3611262565b5b600061150285828601611318565b925050602083013567ffffffffffffffff81111561152357611522611267565b5b61152f858286016114af565b9150509250929050565b60008115159050919050565b61154e81611539565b82525050565b60006020820190506115696000830184611545565b92915050565b6115788161128c565b82525050565b6000602082019050611593600083018461156f565b92915050565b6000602082840312156115af576115ae611262565b5b60006115bd84828501611318565b91505092915050565b600082825260208201905092915050565b7f5472656173757279526562616c616e6365723a206e6f74206f776e6572000000600082015250565b600061160d601d836115c6565b9150611618826115d7565b602082019050919050565b6000602082019050818103600083015261163c81611600565b9050919050565b7f496e76616c696420616464726573730000000000000000000000000000000000600082015250565b6000611679600f836115c6565b915061168482611643565b602082019050919050565b600060208201905081810360008301526116a88161166c565b9050919050565b7f416d6f756e74206d757374206265203e20300000000000000000000000000000600082015250565b60006116e56012836115c6565b91506116f0826116af565b602082019050919050565b60006020820190508181036000830152611714816116d8565b9050919050565b6000606082019050611730600083018661156f565b61173d602083018561156f565b61174a604083018461136d565b949350505050565b61175b81611539565b811461176657600080fd5b50565b60008151905061177881611752565b92915050565b60006020828403121561179457611793611262565b5b60006117a284828501611769565b91505092915050565b7f5472616e73666572206661696c65640000000000000000000000000000000000600082015250565b60006117e1600f836115c6565b91506117ec826117ab565b602082019050919050565b60006020820190508181036000830152611810816117d4565b9050919050565b7f5472656173757279526562616c616e6365723a206e6f7420617574686f72697a60008201527f6564000000000000000000000000000000000000000000000000000000000000602082015250565b60006118736022836115c6565b915061187e82611817565b604082019050919050565b600060208201905081810360008301526118a281611866565b9050919050565b7f496e76616c69642070657263656e744270730000000000000000000000000000600082015250565b60006118df6012836115c6565b91506118ea826118a9565b602082019050919050565b6000602082019050818103600083015261190e816118d2565b9050919050565b60008151905061192481611301565b92915050565b6000602082840312156119405761193f611262565b5b600061194e84828501611915565b91505092915050565b7f4e6f20746f6b656e496e2062616c616e63650000000000000000000000000000600082015250565b600061198d6012836115c6565b915061199882611957565b602082019050919050565b600060208201905081810360008301526119bc81611980565b9050919050565b7f4e487b7100000000000000000000000000000000000000000000000000000000600052601160045260246000fd5b60006119fd826112f7565b9150611a08836112f7565b9250828202611a16816112f7565b91508282048414831517611a2d57611a2c6119c3565b5b5092915050565b7f4e487b7100000000000000000000000000000000000000000000000000000000600052601260045260246000fd5b6000611a6e826112f7565b9150611a79836112f7565b925082611a8957611a88611a34565b5b828204905092915050565b6000604082019050611aa9600083018561156f565b611ab6602083018461136d565b9392505050565b7f417070726f7665206661696c6564000000000000000000000000000000000000600082015250565b6000611af3600e836115c6565b9150611afe82611abd565b602082019050919050565b60006020820190508181036000830152611b2281611ae6565b9050919050565b6000611b34826112f7565b9150611b3f836112f7565b9250828203905081811115611b5757611b566119c3565b5b92915050565b6000611b68826112f7565b9150611b73836112f7565b9250828201905080821115611b8b57611b8a6119c3565b5b92915050565b611b9a8161128c565b82525050565b611ba98161121f565b82525050565b611bb8816112f7565b82525050565b611bc78161126c565b82525050565b61010082016000820151611be46000850182611b91565b506020820151611bf76020850182611b91565b506040820151611c0a6040850182611ba0565b506060820151611c1d6060850182611b91565b506080820151611c306080850182611baf565b5060a0820151611c4360a0850182611baf565b5060c0820151611c5660c0850182611baf565b5060e0820151611c6960e0850182611bbe565b50505050565b600061010082019050611c856000830184611bcd565b92915050565b600081519050919050565b60005b83811015611cb4578082015181840152602081019050611c99565b60008484015250505050565b6000611ccb82611c8b565b611cd581856115c6565b9350611ce5818560208601611c96565b611cee816113a1565b840191505092915050565b6000606082019050611d0e600083018661136d565b611d1b602083018561136d565b8181036040830152611d2d8184611cc0565b9050949350505050565b7f536c697070616765203e20313025000000000000000000000000000000000000600082015250565b6000611d6d600e836115c6565b9150611d7882611d37565b602082019050919050565b60006020820190508181036000830152611d9c81611d60565b905091905056fea264697066735822122082e7d4fb2bf4ebf147c4eacf938bc483d05b66292d971fbd5cf013906d9bcc1564736f6c63430008180033",
  "linkReferences": {},
  "deployedLinkReferences": {}
}