{
  "_format": "hh-sol-artifact-1",
  "contractName": "TreasuryRebalancer",
  "sourceName": "contracts/TreasuryRebalancer.sol",
  "abi": [
    {
      "inputs": [
        {
          "internalType": "address",
          "name": "_swapRouter",
          "type": "address"
        },
        {
          "internalType": "address",
          "name": "_tokenIn",
          "type": "address"
        },
        {
          "internalType": "address",
          "name": "_tokenOut",
          "type": "address"
        },
        {
          "internalType": "uint24",
          "name": "_poolFee",
          "type": "uint24"
        },
        {
          "internalType": "uint256",
          "name": "_slippageBps",
          "type": "uint256"
        },
        {
          "internalType": "address",
          "name": "_aiOracle",
          "type": "address"
        }
      ],
      "stateMutability": "nonpayable",
      "type": "constructor"
    },
    {
      "anonymous": false,
      "inputs": [
        {
          "indexed": true,
          "internalType": "address",
          "name": "token",
          "type": "address"
        },
        {
          "indexed": false,
          "internalType": "uint256",
          "name": "amount",
          "type": "uint256"
        }
      ],
      "name": "Deposited",
      "type": "event"
    },
    {
      "anonymous": false,
      "inputs": [
        {
          "indexed": true,
          "internalType": "address",
          "name": "token",
          "type": "address"
        },
        {
          "indexed": false,
          "internalType": "uint256",
          "name": "amount",
          "type": "uint256"
        }
      ],
      "name": "EmergencyWithdraw",
      "type": "event"
    },
    {
      "anonymous": false,
      "inputs": [
        {
          "indexed": true,
          "internalType": "address",
          "name": "caller",
          "type": "address"
        },
        {
          "indexed": false,
          "internalType": "uint256",
          "name": "amountIn",
          "type": "uint256"
        },
        {
          "indexed": false,
          "internalType": "uint256",
          "name": "amountOut",
          "type": "uint256"
        },
        {
          "indexed": false,
          "internalType": "string",
          "name": "signal",
          "type": "string"
        }
      ],
      "name": "RebalanceExecuted",
      "type": "event"
    },
    {
      "anonymous": false,
      "inputs": [
        {
          "indexed": true,
          "internalType": "address",
          "name": "newRelayer",
          "type": "address"
        }
      ],
      "name": "RelayerUpdated",
      "type": "event"
    },
    {
      "anonymous": false,
      "inputs": [
        {
          "indexed": true,
          "internalType": "address",
          "name": "newRouter",
          "type": "address"
        }
      ],
      "name": "RouterUpdated",
      "type": "event"
    },
    {
      "inputs": [],
      "name": "aiOracle",
      "outputs": [
        {
          "internalType": "address",
          "name": "",
          "type": "address"
        }
      ],
      "stateMutability": "view",
      "type": "function"
    },
    {
      "inputs": [
        {
          "internalType": "address",
          "name": "token",
          "type": "address"
        }
      ],
      "name": "balanceOf",
      "outputs": [
        {
          "internalType": "uint256",
          "name": "",
          "type": "uint256"
        }
      ],
      "stateMutability": "view",
      "type": "function"
    },
    {
      "inputs": [
        {
          "internalType": "address",
          "name": "token",
          "type": "address"
        },
        {
          "internalType": "uint256",
          "name": "amount",
          "type": "uint256"
        }
      ],
      "name": "deposit",
      "outputs": [],
      "stateMutability": "nonpayable",
      "type": "function"
    },
    {
      "inputs": [
        {
          "internalType": "address",
          "name": "token",
          "type": "address"
        },
        {
          "internalType": "uint256",
          "name": "amount",
          "type": "uint256"
        }
      ],
      "name": "emergencyWithdraw",
      "outputs": [],
      "stateMutability": "nonpayable",
      "type": "function"
    },
    {
      "inputs": [],
      "name": "owner",
      "outputs": [
        {
          "internalType": "address",
          "name": "",
          "type": "address"
        }
      ],
      "stateMutability": "view",
      "type": "function"
    },
    {
      "inputs": [],
      "name": "poolFee",
      "outputs": [
        {
          "internalType": "uint24",
          "name": "",
          "type": "uint24"
        }
      ],
      "stateMutability": "view",
      "type": "function"
    },
    {
      "inputs": [
        {
          "internalType": "uint256",
          "name": "percentBps",
          "type": "uint256"
        },
        {
          "internalType": "string",
          "name": "signal",
          "type": "string"
        },
        {
          "internalType": "bytes",
          "name": "signature",
          "type": "bytes"
        }
      ],
      "name": "rebalance",
      "outputs": [
        {
          "internalType": "bool",
          "name": "",
          "type": "bool"
        }
      ],
      "stateMutability": "nonpayable",
      "type": "function"
    },
    {
      "inputs": [],
      "name": "relayer",
      "outputs": [
        {
          "internalType": "address",
          "name": "",
          "type": "address"
        }
      ],
      "stateMutability": "view",
      "type": "function"
    },
    {
      "inputs": [
        {
          "internalType": "address",
          "name": "newRelayer",
          "type": "address"
        }
      ],
      "name": "setRelayer",
      "outputs": [],
      "stateMutability": "nonpayable",
      "type": "function"
    },
    {
      "inputs": [
        {
          "internalType": "uint256",
          "name": "newSlippageBps",
          "type": "uint256"
        }
      ],
      "name": "setSlippage",
      "outputs": [],
      "stateMutability": "nonpayable",
      "type": "function"
    },
    {
      "inputs": [
        {
          "internalType": "address",
          "name": "newRouter",
          "type": "address"
        }
      ],
      "name": "setSwapRouter",
      "outputs": [],
      "stateMutability": "nonpayable",
      "type": "function"
    },
    {
      "inputs": [],
      "name": "slippageBps",
      "outputs": [
        {
          "internalType": "uint256",
          "name": "",
          "type": "uint256"
        }
      ],
      "stateMutability": "view",
      "type": "function"
    },
    {
      "inputs": [],
      "name": "swapRouter",
      "outputs": [
        {
          "internalType": "address",
          "name": "",
          "type": "address"
        }
      ],
      "stateMutability": "view",
      "type": "function"
    },
    {
      "inputs": [],
      "name": "tokenIn",
      "outputs": [
        {
          "internalType": "address",
          "name": "",
          "type": "address"
        }
      ],
      "stateMutability": "view",
      "type": "function"
    },
    {
      "inputs": [],
      "name": "tokenOut",
      "outputs": [
        {
          "internalType": "address",
          "name": "",
          "type": "address"
        }
      ],
      "stateMutability": "view",
      "type": "function"
    },
    {
      "inputs": [
        {
          "internalType": "address",
          "name": "newOwner",
          "type": "address"
        }
      ],
      "name": "transferOwnership",
      "outputs": [],
      "stateMutability": "nonpayable",
      "type": "function"
    }
  ],
  "bytecode": "0x60806040523480156200001157600080fd5b5060405162002a4f38038062002a4f83398181016040528101906200003791906200049b565b600073ffffffffffffffffffffffffffffffffffffffff168673ffffffffffffffffffffffffffffffffffffffff1603620000a9576040517f08c379a0000000000000000000000000000000000000000000000000000000008152600401620000a09062000598565b60405180910390fd5b600073ffffffffffffffffffffffffffffffffffffffff168573ffffffffffffffffffffffffffffffffffffffff16036200011b576040517f08c379a000000000000000000000000000000000000000000000000000000000815260040162000112906200060a565b60405180910390fd5b600073ffffffffffffffffffffffffffffffffffffffff168473ffffffffffffffffffffffffffffffffffffffff16036200018d576040517f08c379a000000000000000000000000000000000000000000000000000000000815260040162000184906200067c565b60405180910390fd5b600073ffffffffffffffffffffffffffffffffffffffff168173ffffffffffffffffffffffffffffffffffffffff1603620001ff576040517f08c379a0000000000000000000000000000000000000000000000000000000008152600401620001f690620006ee565b60405180910390fd5b336000806101000a81548173ffffffffffffffffffffffffffffffffffffffff021916908373ffffffffffffffffffffffffffffffffffffffff16021790555033600160006101000a81548173ffffffffffffffffffffffffffffffffffffffff021916908373ffffffffffffffffffffffffffffffffffffffff16021790555080600560006101000a81548173ffffffffffffffffffffffffffffffffffffffff021916908373ffffffffffffffffffffffffffffffffffffffff16021790555085600260006101000a81548173ffffffffffffffffffffffffffffffffffffffff021916908373ffffffffffffffffffffffffffffffffffffffff16021790555084600360006101000a81548173ffffffffffffffffffffffffffffffffffffffff021916908373ffffffffffffffffffffffffffffffffffffffff16021790555083600460006101000a81548173ffffffffffffffffffffffffffffffffffffffff021916908373ffffffffffffffffffffffffffffffffffffffff16021790555082600560146101000a81548162ffffff021916908362ffffff1602179055508160068190555050505050505062000710565b600080fd5b600073ffffffffffffffffffffffffffffffffffffffff82169050919050565b6000620003e882620003bb565b9050919050565b620003fa81620003db565b81146200040657600080fd5b50565b6000815190506200041a81620003ef565b92915050565b600062ffffff82169050919050565b6200043a8162000420565b81146200044657600080fd5b50565b6000815190506200045a816200042f565b92915050565b6000819050919050565b620004758162000460565b81146200048157600080fd5b50565b60008151905062000495816200046a565b92915050565b60008060008060008060c08789031215620004bb57620004ba620003b6565b5b6000620004cb89828a0162000409565b9650506020620004de89828a0162000409565b9550506040620004f189828a0162000409565b94505060606200050489828a0162000449565b93505060806200051789828a0162000484565b92505060a06200052a89828a0162000409565b9150509295509295509295565b600082825260208201905092915050565b7f496e76616c696420726f75746572000000000000000000000000000000000000600082015250565b600062000580600e8362000537565b91506200058d8262000548565b602082019050919050565b60006020820190508181036000830152620005b38162000571565b9050919050565b7f496e76616c696420746f6b656e496e0000000000000000000000000000000000600082015250565b6000620005f2600f8362000537565b9150620005ff82620005ba565b602082019050919050565b600060208201905081810360008301526200062581620005e3565b9050919050565b7f496e76616c696420746f6b656e4f757400000000000000000000000000000000600082015250565b60006200066460108362000537565b915062000671826200062c565b602082019050919050565b60006020820190508181036000830152620006978162000655565b9050919050565b7f496e76616c6964206f7261636c65000000000000000000000000000000000000600082015250565b6000620006d6600e8362000537565b9150620006e3826200069e565b602082019050919050565b600060208201905081810360008301526200070981620006c7565b9050919050565b61232f80620007206000396000f3fe608060405234801561001057600080fd5b50600436106101005760003560e01c80638406c07911610097578063d0202d3b11610066578063d0202d3b14610277578063d12532dc14610295578063f0fa55a9146102c5578063f2fde38b146102e157610100565b80638406c079146102015780638da5cb5b1461021f57806395ccea671461023d578063c31c9c071461025957610100565b8063578c71d9116100d3578063578c71d9146101795780636548e9bc146101975780636daf390b146101b357806370a08231146101d157610100565b8063089fe6aa1461010557806331b221cd14610123578063412736571461014157806347e7ef241461015d575b600080fd5b61010d6102fd565b60405161011a9190611459565b60405180910390f35b61012b610312565b60405161013891906114b5565b60405180910390f35b61015b60048036038101906101569190611510565b610338565b005b61017760048036038101906101729190611573565b6104bc565b005b610181610616565b60405161018e91906115c2565b60405180910390f35b6101b160048036038101906101ac9190611510565b61061c565b005b6101bb6107a0565b6040516101c891906114b5565b60405180910390f35b6101eb60048036038101906101e69190611510565b6107c6565b6040516101f891906115c2565b60405180910390f35b610209610849565b60405161021691906114b5565b60405180910390f35b61022761086f565b60405161023491906114b5565b60405180910390f35b61025760048036038101906102529190611573565b610893565b005b610261610a99565b60405161026e91906114b5565b60405180910390f35b61027f610abf565b60405161028c91906114b5565b60405180910390f35b6102af60048036038101906102aa91906117c4565b610ae5565b6040516102bc919061186a565b60405180910390f35b6102df60048036038101906102da9190611885565b61109c565b005b6102fb60048036038101906102f69190611510565b611179565b005b600560149054906101000a900462ffffff1681565b600560009054906101000a900473ffffffffffffffffffffffffffffffffffffffff1681565b60008054906101000a900473ffffffffffffffffffffffffffffffffffffffff1673ffffffffffffffffffffffffffffffffffffffff163373ffffffffffffffffffffffffffffffffffffffff16146103c6576040517f08c379a00000000000000000000000000000000000000000000000000000000081526004016103bd9061190f565b60405180910390fd5b600073ffffffffffffffffffffffffffffffffffffffff168173ffffffffffffffffffffffffffffffffffffffff1603610435576040517f08c379a000000000000000000000000000000000000000000000000000000000815260040161042c9061197b565b60405180910390fd5b80600260006101000a81548173ffffffffffffffffffffffffffffffffffffffff021916908373ffffffffffffffffffffffffffffffffffffffff1602179055508073ffffffffffffffffffffffffffffffffffffffff167f7aed1d3e8155a07ccf395e44ea3109a0e2d6c9b29bbbe9f142d9790596f4dc8060405160405180910390a250565b600081116104ff576040517f08c379a00000000000000000000000000000000000000000000000000000000081526004016104f6906119e7565b60405180910390fd5b60008273ffffffffffffffffffffffffffffffffffffffff166323b872dd3330856040518463ffffffff1660e01b815260040161053e93929190611a07565b6020604051808303816000875af115801561055d573d6000803e3d6000fd5b505050506040513d601f19601f820116820180604052508101906105819190611a6a565b9050806105c3576040517f08c379a00000000000000000000000000000000000000000000000000000000081526004016105ba90611ae3565b60405180910390fd5b8273ffffffffffffffffffffffffffffffffffffffff167f2da466a7b24304f47e87fa2e1e5a81b9831ce54fec19055ce277ca2f39ba42c48360405161060991906115c2565b60405180910390a2505050565b60065481565b60008054906101000a900473ffffffffffffffffffffffffffffffffffffffff1673ffffffffffffffffffffffffffffffffffffffff163373ffffffffffffffffffffffffffffffffffffffff16146106aa576040517f08c379a00000000000000000000000000000000000000000000000000000000081526004016106a19061190f565b60405180910390fd5b600073ffffffffffffffffffffffffffffffffffffffff168173ffffffffffffffffffffffffffffffffffffffff1603610719576040517f08c379a00000000000000000000000000000000000000000000000000000000081526004016107109061197b565b60405180910390fd5b80600160006101000a81548173ffffffffffffffffffffffffffffffffffffffff021916908373ffffffffffffffffffffffffffffffffffffffff1602179055508073ffffffffffffffffffffffffffffffffffffffff167f09bf35b7806e61e7baf86e6547c4221f69d130ccc0a19215d064685a89464a7060405160405180910390a250565b600360009054906101000a900473ffffffffffffffffffffffffffffffffffffffff1681565b60008173ffffffffffffffffffffffffffffffffffffffff166370a08231306040518263ffffffff1660e01b815260040161080191906114b5565b602060405180830381865afa15801561081e573d6000803e3d6000fd5b505050506040513d601f19601f820116820180604052508101906108429190611b18565b9050919050565b600160009054906101000a900473ffffffffffffffffffffffffffffffffffffffff1681565b60008054906101000a900473ffffffffffffffffffffffffffffffffffffffff1681565b60008054906101000a900473ffffffffffffffffffffffffffffffffffffffff1673ffffffffffffffffffffffffffffffffffffffff163373ffffffffffffffffffffffffffffffffffffffff1614610921576040517f08c379a00000000000000000000000000000000000000000000000000000000081526004016109189061190f565b60405180910390fd5b60008111610964576040517f08c379a000000000000000000000000000000000000000000000000000000000815260040161095b906119e7565b60405180910390fd5b60008273ffffffffffffffffffffffffffffffffffffffff1663a9059cbb60008054906101000a900473ffffffffffffffffffffffffffffffffffffffff16846040518363ffffffff1660e01b81526004016109c1929190611b45565b6020604051808303816000875af11580156109e0573d6000803e3d6000fd5b505050506040513d601f19601f82011682018060405250810190610a049190611a6a565b905080610a46576040517f08c379a0000000000000000000000000000000000000000000000000000000008152600401610a3d90611ae3565b60405180910390fd5b8273ffffffffffffffffffffffffffffffffffffffff167f5fafa99d0643513820be26656b45130b01e1c03062e1266bf36f88cbd3bd969583604051610a8c91906115c2565b60405180910390a2505050565b600260009054906101000a900473ffffffffffffffffffffffffffffffffffffffff1681565b600460009054906101000a900473ffffffffffffffffffffffffffffffffffffffff1681565b60008060009054906101000a900473ffffffffffffffffffffffffffffffffffffffff1673ffffffffffffffffffffffffffffffffffffffff163373ffffffffffffffffffffffffffffffffffffffff161480610b8f5750600160009054906101000a900473ffffffffffffffffffffffffffffffffffffffff1673ffffffffffffffffffffffffffffffffffffffff163373ffffffffffffffffffffffffffffffffffffffff16145b610bce576040517f08c379a0000000000000000000000000000000000000000000000000000000008152600401610bc590611be0565b60405180910390fd5b600084118015610be057506127108411155b610c1f576040517f08c379a0000000000000000000000000000000000000000000000000000000008152600401610c1690611c4c565b60405180910390fd5b610c2a8484846112b9565b610c69576040517f08c379a0000000000000000000000000000000000000000000000000000000008152600401610c6090611cb8565b60405180910390fd5b6000600360009054906101000a900473ffffffffffffffffffffffffffffffffffffffff1673ffffffffffffffffffffffffffffffffffffffff166370a08231306040518263ffffffff1660e01b8152600401610cc691906114b5565b602060405180830381865afa158015610ce3573d6000803e3d6000fd5b505050506040513d601f19601f82011682018060405250810190610d079190611b18565b905060008111610d4c576040517f08c379a0000000000000000000000000000000000000000000000000000000008152600401610d4390611d24565b60405180910390fd5b60006127108683610d5d9190611d73565b610d679190611de4565b90506000600360009054906101000a900473ffffffffffffffffffffffffffffffffffffffff1673ffffffffffffffffffffffffffffffffffffffff1663095ea7b3600260009054906101000a900473ffffffffffffffffffffffffffffffffffffffff16846040518363ffffffff1660e01b8152600401610dea929190611b45565b6020604051808303816000875af1158015610e09573d6000803e3d6000fd5b505050506040513d601f19601f82011682018060405250810190610e2d9190611a6a565b905080610e6f576040517f08c379a0000000000000000000000000000000000000000000000000000000008152600401610e6690611e61565b60405180910390fd5b600061271060065484610e829190611d73565b610e8c9190611de4565b83610e979190611e81565b90506000604051806101000160405280600360009054906101000a900473ffffffffffffffffffffffffffffffffffffffff1673ffffffffffffffffffffffffffffffffffffffff168152602001600460009054906101000a900473ffffffffffffffffffffffffffffffffffffffff1673ffffffffffffffffffffffffffffffffffffffff168152602001600560149054906101000a900462ffffff1662ffffff1681526020013073ffffffffffffffffffffffffffffffffffffffff16815260200161012c42610f699190611eb5565b8152602001858152602001838152602001600073ffffffffffffffffffffffffffffffffffffffff1681525090506000600260009054906101000a900473ffffffffffffffffffffffffffffffffffffffff1673ffffffffffffffffffffffffffffffffffffffff1663414bf389836040518263ffffffff1660e01b8152600401610ff49190611fc7565b6020604051808303816000875af1158015611013573d6000803e3d6000fd5b505050506040513d601f19601f820116820180604052508101906110379190611b18565b90503373ffffffffffffffffffffffffffffffffffffffff167f0d4b650046f436bfa89fef6ee61b6b4bf86536a65c57704d96b76898b21f32a586838c60405161108393929190612051565b60405180910390a2600196505050505050509392505050565b60008054906101000a900473ffffffffffffffffffffffffffffffffffffffff1673ffffffffffffffffffffffffffffffffffffffff163373ffffffffffffffffffffffffffffffffffffffff161461112a576040517f08c379a00000000000000000000000000000000000000000000000000000000081526004016111219061190f565b60405180910390fd5b6103e881111561116f576040517f08c379a0000000000000000000000000000000000000000000000000000000008152600401611166906120db565b60405180910390fd5b8060068190555050565b60008054906101000a900473ffffffffffffffffffffffffffffffffffffffff1673ffffffffffffffffffffffffffffffffffffffff163373ffffffffffffffffffffffffffffffffffffffff1614611207576040517f08c379a00000000000000000000000000000000000000000000000000000000081526004016111fe9061190f565b60405180910390fd5b600073ffffffffffffffffffffffffffffffffffffffff168173ffffffffffffffffffffffffffffffffffffffff1603611276576040517f08c379a000000000000000000000000000000000000000000000000000000000815260040161126d9061197b565b60405180910390fd5b806000806101000a81548173ffffffffffffffffffffffffffffffffffffffff021916908373ffffffffffffffffffffffffffffffffffffffff16021790555050565b60008084846040516020016112cf929190612158565b6040516020818303038152906040528051906020012090506000816040516020016112fa91906121f7565b6040516020818303038152906040528051906020012090506000806000611320876113d3565b925092509250600560009054906101000a900473ffffffffffffffffffffffffffffffffffffffff1673ffffffffffffffffffffffffffffffffffffffff16600185858585604051600081526020016040526040516113829493929190612248565b6020604051602081039080840390855afa1580156113a4573d6000803e3d6000fd5b5050506020604051035173ffffffffffffffffffffffffffffffffffffffff1614955050505050509392505050565b6000806000604184511461141c576040517f08c379a0000000000000000000000000000000000000000000000000000000008152600401611413906122d9565b60405180910390fd5b6020840151915060408401519050606084015160001a92509193909250565b600062ffffff82169050919050565b6114538161143b565b82525050565b600060208201905061146e600083018461144a565b92915050565b600073ffffffffffffffffffffffffffffffffffffffff82169050919050565b600061149f82611474565b9050919050565b6114af81611494565b82525050565b60006020820190506114ca60008301846114a6565b92915050565b6000604051905090565b600080fd5b600080fd5b6114ed81611494565b81146114f857600080fd5b50565b60008135905061150a816114e4565b92915050565b600060208284031215611526576115256114da565b5b6000611534848285016114fb565b91505092915050565b6000819050919050565b6115508161153d565b811461155b57600080fd5b50565b60008135905061156d81611547565b92915050565b6000806040838503121561158a576115896114da565b5b6000611598858286016114fb565b92505060206115a98582860161155e565b9150509250929050565b6115bc8161153d565b82525050565b60006020820190506115d760008301846115b3565b92915050565b600080fd5b600080fd5b6000601f19601f8301169050919050565b7f4e487b7100000000000000000000000000000000000000000000000000000000600052604160045260246000fd5b611630826115e7565b810181811067ffffffffffffffff8211171561164f5761164e6115f8565b5b80604052505050565b60006116626114d0565b905061166e8282611627565b919050565b600067ffffffffffffffff82111561168e5761168d6115f8565b5b611697826115e7565b9050602081019050919050565b82818337600083830152505050565b60006116c66116c184611673565b611658565b9050828152602081018484840111156116e2576116e16115e2565b5b6116ed8482856116a4565b509392505050565b600082601f83011261170a576117096115dd565b5b813561171a8482602086016116b3565b91505092915050565b600067ffffffffffffffff82111561173e5761173d6115f8565b5b611747826115e7565b9050602081019050919050565b600061176761176284611723565b611658565b905082815260208101848484011115611783576117826115e2565b5b61178e8482856116a4565b509392505050565b600082601f8301126117ab576117aa6115dd565b5b81356117bb848260208601611754565b91505092915050565b6000806000606084860312156117dd576117dc6114da565b5b60006117eb8682870161155e565b935050602084013567ffffffffffffffff81111561180c5761180b6114df565b5b611818868287016116f5565b925050604084013567ffffffffffffffff811115611839576118386114df565b5b61184586828701611796565b9150509250925092565b60008115159050919050565b6118648161184f565b82525050565b600060208201905061187f600083018461185b565b92915050565b60006020828403121561189b5761189a6114da565b5b60006118a98482850161155e565b91505092915050565b600082825260208201905092915050565b7f5472656173757279526562616c616e6365723a206e6f74206f776e6572000000600082015250565b60006118f9601d836118b2565b9150611904826118c3565b602082019050919050565b60006020820190508181036000830152611928816118ec565b9050919050565b7f496e76616c696420616464726573730000000000000000000000000000000000600082015250565b6000611965600f836118b2565b91506119708261192f565b602082019050919050565b6000602082019050818103600083015261199481611958565b9050919050565b7f416d6f756e74206d757374206265203e20300000000000000000000000000000600082015250565b60006119d16012836118b2565b91506119dc8261199b565b602082019050919050565b60006020820190508181036000830152611a00816119c4565b9050919050565b6000606082019050611a1c60008301866114a6565b611a2960208301856114a6565b611a3660408301846115b3565b949350505050565b611a478161184f565b8114611a5257600080fd5b50565b600081519050611a6481611a3e565b92915050565b600060208284031215611a8057611a7f6114da565b5b6000611a8e84828501611a55565b91505092915050565b7f5472616e73666572206661696c65640000000000000000000000000000000000600082015250565b6000611acd600f836118b2565b9150611ad882611a97565b602082019050919050565b60006020820190508181036000830152611afc81611ac0565b9050919050565b600081519050611b1281611547565b92915050565b600060208284031215611b2e57611b2d6114da565b5b6000611b3c84828501611b03565b91505092915050565b6000604082019050611b5a60008301856114a6565b611b6760208301846115b3565b9392505050565b7f5472656173757279526562616c616e6365723a206e6f7420617574686f72697a60008201527f6564000000000000000000000000000000000000000000000000000000000000602082015250565b6000611bca6022836118b2565b9150611bd582611b6e565b604082019050919050565b60006020820190508181036000830152611bf981611bbd565b9050919050565b7f496e76616c69642070657263656e744270730000000000000000000000000000600082015250565b6000611c366012836118b2565b9150611c4182611c00565b602082019050919050565b60006020820190508181036000830152611c6581611c29565b9050919050565b7f556e617574686f72697a656420414920636f6e73656e73757300000000000000600082015250565b6000611ca26019836118b2565b9150611cad82611c6c565b602082019050919050565b60006020820190508181036000830152611cd181611c95565b9050919050565b7f4e6f20746f6b656e496e2062616c616e63650000000000000000000000000000600082015250565b6000611d0e6012836118b2565b9150611d1982611cd8565b602082019050919050565b60006020820190508181036000830152611d3d81611d01565b9050919050565b7f4e487b7100000000000000000000000000000000000000000000000000000000600052601160045260246000fd5b6000611d7e8261153d565b9150611d898361153d565b9250828202611d978161153d565b91508282048414831517611dae57611dad611d44565b5b5092915050565b7f4e487b7100000000000000000000000000000000000000000000000000000000600052601260045260246000fd5b6000611def8261153d565b9150611dfa8361153d565b925082611e0a57611e09611db5565b5b828204905092915050565b7f417070726f7665206661696c6564000000000000000000000000000000000000600082015250565b6000611e4b600e836118b2565b9150611e5682611e15565b602082019050919050565b60006020820190508181036000830152611e7a81611e3e565b9050919050565b6000611e8c8261153d565b9150611e978361153d565b9250828203905081811115611eaf57611eae611d44565b5b92915050565b6000611ec08261153d565b9150611ecb8361153d565b9250828201905080821115611ee357611ee2611d44565b5b92915050565b611ef281611494565b82525050565b611f018161143b565b82525050565b611f108161153d565b82525050565b611f1f81611474565b82525050565b61010082016000820151611f3c6000850182611ee9565b506020820151611f4f6020850182611ee9565b506040820151611f626040850182611ef8565b506060820151611f756060850182611ee9565b506080820151611f886080850182611f07565b5060a0820151611f9b60a0850182611f07565b5060c0820151611fae60c0850182611f07565b5060e0820151611fc160e0850182611f16565b50505050565b600061010082019050611fdd6000830184611f25565b92915050565b600081519050919050565b60005b8381101561200c578082015181840152602081019050611ff1565b60008484015250505050565b600061202382611fe3565b61202d81856118b2565b935061203d818560208601611fee565b612046816115e7565b840191505092915050565b600060608201905061206660008301866115b3565b61207360208301856115b3565b81810360408301526120858184612018565b9050949350505050565b7f536c697070616765203e20313025000000000000000000000000000000000000600082015250565b60006120c5600e836118b2565b91506120d08261208f565b602082019050919050565b600060208201905081810360008301526120f4816120b8565b9050919050565b6000819050919050565b6121166121118261153d565b6120fb565b82525050565b600081905092915050565b600061213282611fe3565b61213c818561211c565b935061214c818560208601611fee565b80840191505092915050565b60006121648285612105565b6020820191506121748284612127565b91508190509392505050565b7f19457468657265756d205369676e6564204d6573736167653a0a333200000000600082015250565b60006121b6601c8361211c565b91506121c182612180565b601c82019050919050565b6000819050919050565b6000819050919050565b6121f16121ec826121cc565b6121d6565b82525050565b6000612202826121a9565b915061220e82846121e0565b60208201915081905092915050565b612226816121cc565b82525050565b600060ff82169050919050565b6122428161222c565b82525050565b600060808201905061225d600083018761221d565b61226a6020830186612239565b612277604083018561221d565b612284606083018461221d565b95945050505050565b7f496e76616c6964207369676e6174757265206c656e6774680000000000000000600082015250565b60006122c36018836118b2565b91506122ce8261228d565b602082019050919050565b600060208201905081810360008301526122f2816122b6565b905091905056fea2646970667358221220ce4b46ce18028cc911a7353b6038b431b15b5fcf7dee769158bd2fdfb50823df64736f6c63430008180033",
  "linkReferences": {},
  "deployedLinkReferences": {}
}